S0140000547261666963204C696768742E737265639F
S11300000C942A000C9429010C9452010C947B0149
S11300100C943C000C943C000C943C000C943C006C
S11300200C943C000C943C000C94E8010C940F02DA
S11300300C943C000C943C000C943C000C943C004C
S11300400C943C000C943C000C943C000C943C003C
S11300500C943C0011241FBECFE5D8E0DEBFCDBF19
S113006020E0A0E6B0E001C01D92AF36B207E1F790
S11300700E9452000C9436020C940000809161009E
S113008090916200A0916300B09164000196A11D5B
S1130090B11D8093610090936200A0936300B093BC
S11300A0640008950E94A8010E94A40161E08EE307
S11300B090E00E94D30141E060E080E00E94BF0034
S11300C00E94BD018091610090916200A091630043
S11300D0B091640081389A44A105B10561F780911B
S11300E06000811107C040E060E00E94BF0041E071
S11300F061E009C08130C1F440E061E080E00E9429
S1130100BF0041E062E080E00E94BF001092610005
S1130110109262001092630010926400809160005B
S11301208F5F8093600016C0823029F640E062E061
S113013080E00E94BF0041E060E080E00E94BF00D8
S11301401092610010926200109263001092640099
S1130150109260000E94BD01AECF813049F030F0B2
S1130160823041F0833049F462BB05C06BBB03C0ED
S113017068BB01C065BB80E0089581E008956830E4
S113018008F065C0411130C08130D1F078F0823080
S113019009F1833009F05BC022B381E090E001C033
S11301A0880F6A95EAF7809582234FC02BB381E0CC
S11301B090E001C0880F6A95EAF7809582232EC0EB
S11301C028B381E090E001C0880F6A95EAF7809532
S11301D082232EC025B381E090E001C0880F6A9588
S11301E0EAF7809582232FC0413089F58130C1F030
S11301F068F0823001F1833051F522B381E090E060
S113020001C0880F6A95EAF7822B1FC02BB381E0E7
S113021090E001C0880F6A95EAF7822B8BBB09C076
S113022028B381E090E001C0880F6A95EAF7822B39
S113023088BB80E0089525B381E090E001C0880F79
S11302406A95EAF7822B85BBF4CF82BBF2CF81E0BB
S113025008951F920F920FB60F9211242F933F937C
S11302604F935F936F937F938F939F93AF93BF93BA
S1130270EF93FF93E0916900F0916A00309709F0E1
S11302800995FF91EF91BF91AF919F918F917F91CC
S11302906F915F914F913F912F910F900FBE0F90EF
S11302A01F9018951F920F920FB60F9211242F933F
S11302B03F934F935F936F937F938F939F93AF93EA
S11302C0BF93EF93FF93E0916700F091680030973C
S11302D009F00995FF91EF91BF91AF919F918F9193
S11302E07F916F915F914F913F912F910F900FBE2E
S11302F00F901F9018951F920F920FB60F92112412
S11303002F933F934F935F936F937F938F939F9319
S1130310AF93BF93EF93FF93E0916500F091660074
S1130320309709F00995FF91EF91BF91AF919F919B
S11303308F917F916F915F914F913F912F910F908A
S11303400FBE0F901F9018958FB780688FBF0895C8
S113035087E08ABB17BA14BA11BA60E080E00E9441
S1130360AD0060E081E00E94AD0060E082E00E94A8
S1130370AD0060E083E00C94AD0083B78F7B83BF56
S113038083B7877F83BF83B7887F83BF83B7856045
S113039083BF83B78F7C83BF89B7816089BF89B7E7
S11303A08D7F89BF0895009779F0613029F4909387
S11303B06E0080936D0006C0611108C090936C00BC
S11303C080936B0080E0089581E0089582E00895B1
S11303D01F920F920FB60F9211242F933F934F93B6
S11303E05F936F937F938F939F93AF93BF93EF9399
S11303F0FF93E0916B00F0916C000995FF91EF91F0
S1130400BF91AF919F918F917F916F915F914F9128
S11304103F912F910F900FBE0F901F9018951F9230
S11304200F920FB60F9211242F933F934F935F9324
S11304306F937F938F939F93AF93BF93EF93FF93A8
S1130440E0916D00F0916E000995FF91EF91BF91DD
S1130450AF919F918F917F916F915F914F913F9158
S11304602F910F900FBE0F901F901895F894FFCF07
S9030000FC
