S0140000547261666963204C696768742E737265639F
S11300000C942A000C943C000C943C000C943C008E
S11300100C943C000C943C000C943C000C943C006C
S11300200C943C000C943C000C94F5000C941C01C2
S11300300C943C000C943C000C943C000C943C004C
S11300400C943C000C943C000C943C000C943C003C
S11300500C943C0011241FBECFE5D8E0DEBFCDBF19
S113006020E0A0E6B0E001C01D92A436B207E1F79B
S11300700E943E000C9443010C9400000E94DF0097
S113008041E060E080E00E945C00FACF813049F0FA
S113009028F0823049F0833051F00CC06BBB80E013
S11300A0089568BB80E0089565BB80E0089562BB55
S11300B080E0089581E00895683008F078C0411127
S11300C03CC0813099F028F08230E9F0833041F16E
S11300D070C02BB381E090E002C0880F991F6A952D
S11300E0E2F7809582238BBB80E0089528B381E0FA
S11300F090E002C0880F991F6A95E2F780958223E9
S113010088BB80E0089525B381E090E002C0880FA9
S1130110991F6A95E2F78095822385BB80E0089554
S113012022B381E090E002C0880F991F6A95E2F73C
S11301308095822382BB80E008954130E1F58130CF
S113014091F028F08230D9F0833029F136C02BB3F6
S113015081E090E002C0880F991F6A95E2F7822B34
S11301608BBB80E0089528B381E090E002C0880F43
S1130170991F6A95E2F7822B88BB80E0089525B326
S113018081E090E002C0880F991F6A95E2F7822B04
S113019085BB80E0089522B381E090E002C0880F1F
S11301A0991F6A95E2F7822B82BB80E0089581E073
S11301B0089581E0089581E0089581E0089587E03D
S11301C08ABB17BA14BA11BA60E080E00E944600F4
S11301D060E081E00E94460060E082E00E94460008
S11301E060E083E00E94460008951F920F920FB6CC
S11301F00F9211242F933F934F935F936F937F93A9
S11302008F939F93AF93BF93EF93FF93E09160001D
S1130210F09161000995FF91EF91BF91AF919F918A
S11302208F917F916F915F914F913F912F910F909B
S11302300FBE0F901F9018951F920F920FB60F923A
S113024011242F933F934F935F936F937F938F93D7
S11302509F93AF93BF93EF93FF93E0916200F0916C
S113026063000995FF91EF91BF91AF919F918F9199
S11302707F916F915F914F913F912F910F900FBE9E
S10D02800F901F901895F894FFCF1B
S9030000FC
